{
  "_format": "hh-sol-artifact-1",
  "contractName": "MasterAvaxToken",
  "sourceName": "contracts/MasterAvaxToken.sol",
  "abi": [
    {
      "inputs": [],
      "stateMutability": "nonpayable",
      "type": "constructor"
    },
    {
      "anonymous": false,
      "inputs": [
        {
          "indexed": true,
          "internalType": "address",
          "name": "from",
          "type": "address"
        },
        {
          "indexed": false,
          "internalType": "uint256",
          "name": "amount",
          "type": "uint256"
        }
      ],
      "name": "Burn",
      "type": "event"
    },
    {
      "anonymous": false,
      "inputs": [
        {
          "indexed": true,
          "internalType": "address",
          "name": "to",
          "type": "address"
        },
        {
          "indexed": false,
          "internalType": "uint256",
          "name": "amount",
          "type": "uint256"
        }
      ],
      "name": "Mint",
      "type": "event"
    },
    {
      "inputs": [
        {
          "internalType": "address",
          "name": "_owner",
          "type": "address"
        }
      ],
      "name": "balanceOf",
      "outputs": [
        {
          "internalType": "uint256",
          "name": "balance",
          "type": "uint256"
        }
      ],
      "stateMutability": "view",
      "type": "function"
    },
    {
      "inputs": [
        {
          "internalType": "address",
          "name": "",
          "type": "address"
        }
      ],
      "name": "balances",
      "outputs": [
        {
          "internalType": "uint256",
          "name": "",
          "type": "uint256"
        }
      ],
      "stateMutability": "view",
      "type": "function"
    },
    {
      "inputs": [
        {
          "internalType": "uint256",
          "name": "_amount",
          "type": "uint256"
        }
      ],
      "name": "burn",
      "outputs": [],
      "stateMutability": "nonpayable",
      "type": "function"
    },
    {
      "inputs": [
        {
          "internalType": "address",
          "name": "_to",
          "type": "address"
        },
        {
          "internalType": "uint256",
          "name": "_amount",
          "type": "uint256"
        }
      ],
      "name": "mint",
      "outputs": [],
      "stateMutability": "nonpayable",
      "type": "function"
    },
    {
      "inputs": [],
      "name": "name",
      "outputs": [
        {
          "internalType": "string",
          "name": "",
          "type": "string"
        }
      ],
      "stateMutability": "view",
      "type": "function"
    },
    {
      "inputs": [],
      "name": "symbol",
      "outputs": [
        {
          "internalType": "string",
          "name": "",
          "type": "string"
        }
      ],
      "stateMutability": "view",
      "type": "function"
    },
    {
      "inputs": [],
      "name": "totalSupply",
      "outputs": [
        {
          "internalType": "uint256",
          "name": "",
          "type": "uint256"
        }
      ],
      "stateMutability": "view",
      "type": "function"
    }
  ],
  "bytecode": "0x60c0604052601160809081527026b0b9ba32b91020bb30bc102a37b5b2b760791b60a0526000906100309082610122565b5060408051808201909152600381526213505560ea1b60208201526001906100589082610122565b50600a60025534801561006a57600080fd5b50600254336000908152600360205260409020556101e1565b634e487b7160e01b600052604160045260246000fd5b600181811c908216806100ad57607f821691505b6020821081036100cd57634e487b7160e01b600052602260045260246000fd5b50919050565b601f82111561011d57600081815260208120601f850160051c810160208610156100fa5750805b601f850160051c820191505b8181101561011957828155600101610106565b5050505b505050565b81516001600160401b0381111561013b5761013b610083565b61014f816101498454610099565b846100d3565b602080601f831160018114610184576000841561016c5750858301515b600019600386901b1c1916600185901b178555610119565b600085815260208120601f198616915b828110156101b357888601518255948401946001909101908401610194565b50858210156101d15787850151600019600388901b60f8161c191681555b5050505050600190811b01905550565b6104e8806101f06000396000f3fe608060405234801561001057600080fd5b506004361061007d5760003560e01c806340c10f191161005b57806340c10f19146100d757806342966c68146100ec57806370a08231146100ff57806395d89b411461012857600080fd5b806306fdde031461008257806318160ddd146100a057806327e235e3146100b7575b600080fd5b61008a610130565b6040516100979190610367565b60405180910390f35b6100a960025481565b604051908152602001610097565b6100a96100c53660046103d1565b60036020526000908152604090205481565b6100ea6100e53660046103f3565b6101be565b005b6100ea6100fa36600461041d565b610291565b6100a961010d3660046103d1565b6001600160a01b031660009081526003602052604090205490565b61008a61035a565b6000805461013d90610436565b80601f016020809104026020016040519081016040528092919081815260200182805461016990610436565b80156101b65780601f1061018b576101008083540402835291602001916101b6565b820191906000526020600020905b81548152906001019060200180831161019957829003601f168201915b505050505081565b6001600160a01b03821661020b5760405162461bcd60e51b815260206004820152600f60248201526e496e76616c6964206164647265737360881b60448201526064015b60405180910390fd5b806002600082825461021d9190610486565b90915550506001600160a01b0382166000908152600360205260408120805483929061024a908490610486565b90915550506040518181526001600160a01b038316907f0f6798a560793a54c3bcfe86a93cde1e73087d944c0ea20544137d41213968859060200160405180910390a25050565b336000908152600360205260409020548111156102e75760405162461bcd60e51b8152602060048201526014602482015273496e73756666696369656e742062616c616e636560601b6044820152606401610202565b80600260008282546102f9919061049f565b9091555050336000908152600360205260408120805483929061031d90849061049f565b909155505060405181815233907fcc16f5dbb4873280815c1ee09dbd06736cffcc184412cf7a71a0fdb75d397ca59060200160405180910390a250565b6001805461013d90610436565b600060208083528351808285015260005b8181101561039457858101830151858201604001528201610378565b506000604082860101526040601f19601f8301168501019250505092915050565b80356001600160a01b03811681146103cc57600080fd5b919050565b6000602082840312156103e357600080fd5b6103ec826103b5565b9392505050565b6000806040838503121561040657600080fd5b61040f836103b5565b946020939093013593505050565b60006020828403121561042f57600080fd5b5035919050565b600181811c9082168061044a57607f821691505b60208210810361046a57634e487b7160e01b600052602260045260246000fd5b50919050565b634e487b7160e01b600052601160045260246000fd5b8082018082111561049957610499610470565b92915050565b818103818111156104995761049961047056fea2646970667358221220f9665811d32737590852c8ff8afd924bdf08354ce4e8c29cbd338a3e8ae6361464736f6c63430008130033",
  "linkReferences": {},
  "deployedLinkReferences": {}
}